:100000000C9491010C94A3010C94A3010C94CF01C6
:100010000C9416120C94A3010C94A3010C94A3014C
:100020000C94A3010C94A3010C94A3010C94F51A55
:100030000C94A3010C94A3010C94A3010C94A301B0
:100040000C94761A0C94A3010C94E7270C9469285D
:100050000C94A3010C94A3010C94A3010C94A30190
:100060000C94A3010C94A3014C31523155315831F9
:100070005D3165316D310832083208327A317D31B7
:1000800086318F310832083208320832083208329D
:100090009B31A531B131B931BC31C531CE31D4310B
:1000A00008320832DD31E631F131A2044410441047
:1000B000AC04B904C604D3044410D7044410E504C6
:1000C0004410EF04F90403054410441044101305D0
:1000D00020052D051D281F2858285828582858283D
:1000E0005828582858285828582858282528272874
:1000F00029282B282D282F2831283328582837281D
:1001000039283B283D283F28412858284328084AB9
:10011000D73B3BCE016E84BCBFFDC12F3D6C74311B
:100120009ABD56833DDA3D00C77F11BED9E4BB4C72
:100130003E916BAAAABE000000803F05A84CCDB23C
:10014000D44EB93836A9020C50B9918688083CA61D
:10015000AAAA2ABE000000803F000D0A4772626C06
:1001600020312E3166205B27242720666F7220689D
:10017000656C705D0D0A00244E005B4F50543A00D0
:100180005B5645523A312E31662E32303137303897
:1001900030313A005B544C4F3A005B4739323A00F9
:1001A0003330003238005B4700204700204D0020EC
:1001B000530020460020540033382E005B47433A5A
:1001C00047005B484C503A24242024232024472015
:1001D000244920244E2024783D76616C20244E78DA
:1001E0003D6C696E6520244A3D6C696E6520245320
:1001F0004C50202443202458202448207E202120B5
:100200003F206374726C2D785D0D0A00536C656538
:1002100070696E6700526573746F72696E672073E0
:1002200070696E646C6500526573746F72696E6795
:100230002064656661756C74730050676D20456E4F
:100240006400436865636B204C696D697473004397
:100250006865636B20446F6F720044697361626C00
:10026000656400456E61626C656400436175746924
:100270006F6E3A20556E6C6F636B6564002724487F
:10028000277C2724582720746F20756E6C6F636B52
:1002900000526573657420746F20636F6E74696EAD
:1002A0007565005B4D53473A006F6B0D0A00414C7A
:1002B00041524D3A007C413A007C4F763A007C57DF
:1002C000434F3A007C506E3A007C46533A007C42E1
:1002D000663A007C57506F733A007C4D506F733A0A
:1002E00000536C65657000446F6F723A0043686537
:1002F000636B00416C61726D00486F6D65004A6F01
:100300006700486F6C643A0052756E0049646C6512
:10031000000D0A005B5052423A006572726F723AE9
:10032000000011241FBECFEFD8E0DEBFCDBF27E015
:10033000A0E0B1E001C01D92A136B207E1F70E9432
:10034000E82C0C94C73B0C940000EBE6F0E08081B5
:10035000897E8083E8E6F0E080818E7F8083089547
:1003600084B1897E84B985B1866185B98091700137
:1003700083FF0BC080916B00866180936B0080913E
:10038000680081608093680008950C94A501F99934
:10039000FECF92BD81BD81E08FBB80B508951F92D5
:1003A0000F920FB60F9211242F933F934F935F93A9
:1003B0006F937F938F939F93AF93BF93EF93FF932D
:1003C00080911A01813049F080914E05811105C05C
:1003D0000E945B2681E00E94A611FF91EF91BF91E0
:1003E000AF919F918F917F916F915F914F913F91CD
:1003F0002F910F900FBE0F901F90189593B196718B
:100400008091700186FD02C086E19827992349F00A
:1004100091FB882780F992FD8260907119F08460C9
:10042000089580E0089561E071E088E991E00C941E
:10043000BF118F929F92AF92BF92CF92DF92EF92B5
:10044000FF920F931F93CF934B017A016C01C40E5F
:10045000D51E8C01C0E05B01A81AB90AC501800F46
:10046000911F0C151D0599F00E94C701C11108C00C
:100470002C2FCC0F330B232F221F2227221F01C02A
:1004800021E0C22FC80FF80181938F01E7CFC4018B
:100490008E0D9F1D0E94C70121E030E0C81711F0AA
:1004A00020E030E0C901CF911F910F91FF90EF90B4
:1004B000DF90CF90BF90AF909F908F900895F89469
:1004C000F999FECF92BD81BD81E08FBB80B58627B3
:1004D000482F082E000C550B262F30E024233523FF
:1004E000232B39F06F3F19F060BD84E006C084E132
:1004F00004C0882321F060BD84E28FBBF99A789410
:1005000008958F929F92AF92BF92CF92DF92EF9217
:10051000FF920F931F93CF937C014A016B01C40E8E
:10052000D51E8B01C0E05C01A61AB70AC8018A0D6E
:100530009B1D0C151D0599F0C11108C02C2FCC0F67
:10054000330B232F221F2227221F01C021E0F80195
:1005500061918F01C22FC60F0E945F02E7CF6C2FFF
:10056000C701880D991DCF911F910F91FF90EF90BA
:10057000DF90CF90BF90AF909F908F900C945F02D0
:1005800090911B01911108C0811102C0439802C0D3
:1005900086FD439A1092250108952F923F924F9223
:1005A0005F926F927F928F929F92AF92BF92CF9203
:1005B000DF92EF92FF920F931F93CF93DF93CDB70C
:1005C000DEB7CA54D1090FB6F894DEBF0FBECDBF57
:1005D0008AE3E0ECF1E0DF011D928A95E9F78BE018
:1005E000E0E8F1E0A1ECB1E001900D928A95E1F72D
:1005F00080911107843211F00C94681081E080938F
:10060000C1011092C20183E08A8FB1E0BBA3212C0B
:10061000312C18AA1FA6C12C1B8E1F8EDD24D3944B
:100620006AE0A62EB12C0EE571E6872E73E0972EB8
:100630008A8DE82FF0E0EF5EF84FE080EE2009F4BD
:100640003EC29FEB9E0D9A3110F00C9434108F5FD8
:100650008A8FBE016A5E7F4FCE014A960E943D2A74
:10066000882311F40C9436104E885F88688C798C3E
:10067000C301B2010E94323B0E947038162F70E015
:1006800080E090E00E94A1389B01AC01C301B2015F
:100690000E94F73620E030E048EC52E40E944F3AE6
:1006A0000E94BC3A0E947038CB01E7E4EE1629F0B4
:1006B000FDE4EF1609F4EAC034C1183209F4C5C0EC
:1006C00020F5143168F4113108F08AC0143009F4AF
:1006D00052C008F464C01A3009F445C00C944410A8
:1006E0001C3109F440C050F4163110F00C94441041
:1006F00025E1211B2093C30126E0ACC01E3199F1F6
:10070000163209F44CC00C9444101D3309F497C000
:10071000A8F4153381F140F41B3209F47AC0113387
:1007200009F477C00C9444101C3310F00C9444105E
:100730006AEC610F6093C70129E08CC01C3538F466
:100740001A3508F053C0103581F10C9444101C3553
:1007500051F01F3510F00C944410202F211B2093D2
:10076000C20125E077C0009731F42F8D21110C9440
:10077000381031E03F8F1093C001212F2D7F2C3195
:1007800019F01C3509F063C0009721F00A9711F0A9
:100790000C944410610F6093C00120E060C06F8D25
:1007A00061110C943810A2E0AF8F1093C101163282
:1007B00009F04FC08431910559F08E31910541F017
:1007C0008832910529F08233910511F00C94441080
:1007D000B5010E94643B66576093C10121E03FC0B0
:1007E0006FEE610F6093C50122E034C0892B31F4B4
:1007F00066EA610F6093C40123E031C06A3071057D
:1008000011F00C9444101A3511F40C94441024E0A7
:1008100026C0BF8DB1110C943810113331F41092F1
:10082000C60128E0E3E0EF8F1AC00A9711F00C949C
:100830004410D092C60128E0F3E0FF8F10C0892B4E
:1008400011F00C9444102AE00AC027E003C020E015
:1008500001C021E0892B19F087E10C946C1081E034
:1008600090E002C0880F991F2A95E2F72FA538A9BA
:1008700028233923232B19F085E10C946C102FA524
:1008800038A9282B392B38AB2FA7D2CE892B21F7AB
:10089000163018F4133058F016C0183010F40C94B9
:1008A00044101A30F0F01E3159F00C94441011230A
:1008B00019F0113001F104C033E03093C8011BC0BE
:1008C0001093C80118C0143021F0153031F080E1C8
:1008D00001C080E28093CA0102C01092CA018CE07C
:1008E0000BC0193021F080E48093C90102C010923E
:1008F000C9018DE001C08BE0A1E0B0E002C0AA0F09
:10090000BB1F8A95E2F72FA538A92A233B23232B67
:1009100009F0B2CFEFA5F8A9EA2BFB2BF8ABEFA7B4
:1009200087CE8E2DEE0C990BAA0BBB0BFC01E65467
:10093000F109E531F10510F00C944410EB5AFF4F2A
:100940000C949A3B4092CC015092CD016092CE0122
:100950007092CF0180E08DC04092D0015092D101C1
:100960006092D2017092D301FC2DF160CF2E81E014
:1009700080C04092D4015092D5016092D60170920D
:10098000D7012C2D2260C22E82E073C04092D80184
:100990005092D9016092DA017092DB013C2D3460F3
:1009A000C32E83E066C01093DC0184E062C0C30103
:1009B000B2010E9469386093DD017093DE0180937B
:1009C000DF019093E00185E054C04092E101509234
:1009D000E2016092E3017092E40186E04AC0409235
:1009E000E5015092E6016092E7017092E80187E02C
:1009F00040C04092E9015092EA016092EB0170928E
:100A0000EC0188E036C020E030E04FE753E4C3015A
:100A1000B2010E940F3A181614F40C943A10109375
:100A2000ED0189E026C04092EE015092EF01609204
:100A3000F0017092F1016B8D61606B8F8AE019C0DB
:100A40004092F2015092F3016092F4017092F5012C
:100A50008B8D82608B8F8BE00CC04092F6015092A0
:100A6000F7016092F8017092F9019B8D94609B8F61
:100A70008CE0EE24E394F12C082E02C0EE0CFF1C57
:100A80000A94E2F7970122213321232B11F00C94D1
:100A90003C10D40102C0B595A7958A95E2F7A0FF56
:100AA0000BC020E030E0A901C301B2010E94ED3784
:100AB00087FF02C00C943E102E283F28B9CDBB8D75
:100AC000BB2329F0EF8DE11102C0F2E0FF8F25FE7C
:100AD0000FC08091DD019091DE01A091DF01B09106
:100AE000E00181389649A849B10514F00C944010F2
:100AF0003BA1332301F120FC02C00C944A108091E9
:100B0000C301813009F03FC023E333E34BEC51E4F0
:100B10006091CC017091CD018091CE019091CF0177
:100B20000E944F3A6093CC017093CD018093CE0127
:100B30009093CF0128C08091C201813071F46F8DF4
:100B4000623009F58091C1018035E9F08823D9F040
:100B500020FC02C00C944A1016C0809181018111C2
:100B600012C020FCCCCF80918F0190919001A09178
:100B70009101B09192018093CC019093CD01A0930B
:100B8000CE01B093CF0130FC10C080918B019091C9
:100B90008C01A0918D01B0918E018093E901909319
:100BA000EA01A093EB01B093EC018091C001843085
:100BB00039F426FC03C08CE10C946C10E89426F800
:100BC0008091C501882369F0813029F48BAF1DAA7B
:100BD00092E09BAB0BC01BAEA2E0ADABB1E0BBABF8
:100BE00005C0E2E0EBAFF1E0FDAB1BAA8091C301D1
:100BF000813021F02F8D2330A9F52BC04EEEE42E4D
:100C000041E0F42E00E010E03B8DA32EB12CC50195
:100C1000002E02C0959587950A94E2F780FF10C0D8
:100C200023E333E34BEC51E4D7016D917D918D913A
:100C30009C910E944F3AF701608371838283938372
:100C40000F5F1F4FF4E0EF0EF11C03301105F9F6B2
:100C5000D1CF8091C601813029F42B8D243011F041
:100C60000C9442108CE0E4EAF1E0DE011196019070
:100C70000D928A95E1F78FA598A991FD09C09091F1
:100C8000C0019FA39A30C9F09C3509F4AFC010C1D0
:100C90008091C701873018F08DE10C946C10909111
:100CA0008601981761F3BE016F5F7F4F0E94B31DED
:100CB000882311F40C945810E2CFAB8DA11103C01E
:100CC0008AE10C946C10C10180759927892B09F475
:100CD00072CF6091E1017091E2018091E301909106
:100CE000E4010E94323B0E9470386730A8F6809180
:100CF000DC01843141F0823011F00C94441027FE65
:100D000002C00C944410BFEA2B22662319F06150F4
:100D10006DA703C0E091C701EDA760ED71E08DA55F
:100D20000E94B31D882311F40C945810D090DC015C
:100D30004090BC015090BD016090BE017090BF0119
:100D400000ED11E038E9A32E31E0B32EE12CF12CB7
:100D5000FB8D8F2E912CC4010E2C02C0959587958A
:100D60000A94E2F780FF34C024E1D21228C0D501F2
:100D700058962D913D914D915C915B976D917D9130
:100D80008D919C910E94F736F801268D378D40A1F8
:100D900051A10E94F736D8016D937D938D939C935A
:100DA0001397B2E0EB16F10499F4A30192010E94AB
:100DB000F736F801608371838283938309C0F80159
:100DC000868D978DA0A1B1A180839183A283B383E7
:100DD000FFEFEF1AFF0A0C5F1F4F24E0A20EB11CB9
:100DE00033E0E316F10409F0B6CF2FC16B8D662313
:100DF00009F466CF4090BC015090BD016090BE01E7
:100E00007090BF010EEE11E0A12CB12CE12CF12C61
:100E1000862E912CF501E058FE4FC4010E2C02C025
:100E2000959587950A94E2F780FF2BC0A1E0B0E08A
:100E3000AC0FBD1FAA0DBB1D2D913D914D915C9135
:100E4000608D718D828D938D0E94F736D8012D9122
:100E50003D914D915C910E94F736F801608371835A
:100E600082839383F2E0EF16F104A1F4A3019201CF
:100E70000E94F736D8016D937D938D939C931397C1
:100E800009C080A991A9A2A9B3A9F801808391837F
:100E9000A283B383FFEFEF1AFF0A24E0A20EB11C76
:100EA0000C5F1F4F33E0E316F10409F0B3CFCCC061
:100EB0006F8D633071F48FA18E3109F48BC085334F
:100EC00009F4BCC08C3109F0BFC060ED71E086E070
:100ED00084C09B8D992379F3D090C4014090BC01CC
:100EE0005090BD016090BE017090BF0128E9A22E14
:100EF00021E0B22E0EEE11E0DE0111964D01E12C43
:100F0000F12CE92FF0E0FEA7EDA78DA59EA50E2CF4
:100F100002C0959587950A94E2F780FD0BC0F50114
:100F200080819181A281B381F80180839183A28322
:100F3000B3833FC0FFA1F533E1F1D11029C0D50142
:100F400058962D913D914D915C915B97F401608194
:100F50007181828193810E94F836D8012D913D9153
:100F60004D915C910E94F836F80160837183828311
:100F70009383F2E0EF16F104E1F4A30192010E94E1
:100F8000F836D8016D937D938D939C93139711C080
:100F9000F5012081318142815381D8016D917D918C
:100FA0008D919C910E94F836F80160837183828351
:100FB0009383FFEFEF1AFF0A24E0A20EB11C0C5F2F
:100FC0001F4F34E0830E911C63E0E616F10409F034
:100FD0009CCF71CF60ED71E087E00E94B31D882344
:100FE00011F40C9458108B8D811103C01DA61F8E17
:100FF0002CC020E030E080E090E0AB8D4A2F50E044
:10100000BA01082E02C0759567950A94E2F760FD53
:101010000EC0F901E058FE4F808C918CA28CB38CED
:10102000F901E054FE4F808A918AA28AB38A019620
:101030002C5F3F4F8330910519F706C08091C101A5
:10104000823010F00C9446101DA6B091C101BFA3D0
:10105000B03529F4EB8DE1110C94481074C2FF8D6A
:10106000F23009F070C22FA1211104C03B8D311163
:101070006AC22BC020E030E0A9016091CC017091E0
:10108000CD018091CE019091CF010E94ED37882350
:1010900011F40C944A106FA16C3809F43EC240F46C
:1010A0006230A9F06330B1F0613009F04CC20AC07F
:1010B0008FA18E3809F431C208F42CC28F3809F49C
:1010C00029C241C29B8D91113EC21F8E3CC2ABA171
:1010D000A460ABA3BB8DBB2309F4F2CDEBA90E2F0B
:1010E00010E03DA9232F30E03AA729A781E090E046
:1010F0007C010DA802C0EE0CFF1C0A94E2F702C0AE
:10110000880F991FEA95E2F7E82AF92A8B2F90E0D9
:101110008E219F21892B09F4BFC7F801EE0FFF1F15
:10112000EE0FFF1FE054FE4FD801AA0FBB1FAA0FFE
:10113000BB1FA856BE4F2D913D914D915C9166A568
:1011400077A580A991A90E94F7364B015C01E9A51A
:10115000FAA5EE0FFF1FEE0FFF1FE054FE4FA9A5EB
:10116000BAA5AA0FBB1FAA0FBB1FA856BE4F2D9131
:101170003D914D915C9166A577A580A991A90E94AA
:10118000F7366FAB78AF89AF9AAF310160E866226E
:10119000772427FEEFC0E89427F84CE050E06EEE8D
:1011A00071E088E991E00E94BA3B892B11F481E259
:1011B00093C78091C3018130B1F423E333E34BEC57
:1011C00051E46091E5017091E6018091E701909111
:1011D000E8010E944F3A6093E5017093E601809325
:1011E000E7019093E8014090E5015090E60160909E
:1011F000E7017090E801A5019401C501B4010E94C6
:101200004F3A23966CAF7DAF8EAF9FAF23972FA938
:1012100038AD49AD5AADCA01B9010E944F3A27967F
:101220006CAF7DAF8EAF9FAF279720E030E040E8F6
:1012300050E4C301B2010E944F3AA30192010E94FF
:101240004F3A23962CAD3DAD4EAD5FAD23970E9436
:10125000F73627962CAD3DAD4EAD5FAD27970E947A
:10126000F7366B017C0120E030E0A9010E94ED37E8
:1012700087FD14C7C701B6010E94EE3A6B017C01DD
:1012800027962CAD3DAD4EAD5FAD279723966CAD47
:101290007DAD8EAD9FAD23970E94F8360E94EE3A49
:1012A0009B01AC01C701B60190580E94F7376B0152
:1012B0007C018FA1833021F4F7FAF094F7F8F094D1
:1012C00020E030E0A901C301B2010E94ED3787FFA1
:1012D0000FC0F7FAF094F7F8F094D301C201B058B8
:1012E0008093E5019093E601A093E701B093E801B4
:1012F000000F111F000F111F00531E4FA701960171
:101300006FA978AD89AD9AAD0E944F3A9B01AC01AF
:10131000C501B4010E94F73620E030E040E05FE311
:101320000E944F3AD8016D937D938D939C931397B0
:1013300009A51AA5000F111F000F111F00531E4F02
:10134000A7019601C501B4010E944F3A9B01AC016F
:101350006FA978AD89AD9AAD0E94F83620E030E0F3
:1013600040E05FE30E944F3AF8016083718382831B
:101370009383E9C0D12CEC20FD20EF2809F490C61E
:10138000F1EF2F228091C301813009F47CC0F80174
:10139000EE0FFF1FEE0FFF1FE053FE4FC080D18006
:1013A000E280F380A7019601C501B4010E94F736DF
:1013B0002B013C01E9A5FAA5EE0FFF1FEE0FFF1F61
:1013C000E053FE4F80819181A281B38189A79AA7C2
:1013D000ABA7BCA79C01AD016FA978AD89AD9AAD53
:1013E0000E94F7364B015C01A3019201C301B201D7
:1013F0000E944F3A2B013C01A5019401C501B401A3
:101400000E944F3A9B01AC01C301B2010E94F83621
:101410000E94EE3A4B015C01A7019601C701B6019B
:101420000E944F3A6B017C0129A53AA54BA55CA50A
:10143000CA01B9010E944F3A9B01AC01C701B60134
:101440000E94F8360E94EE3A6B017C016093E50140
:101450007093E6018093E7019093E8019B01AC0152
:10146000C501B4010E94F7364B015C01E894B7F85E
:101470002AE037ED43EA5BE3C501B4010E940F3A6D
:1014800018165CF160C090ECE92E91E0F92EC601CF
:10149000062C02C0959587950A94E2F780FF12C04A
:1014A00023E333E34BEC51E4D70150966D917D91EA
:1014B0008D919C9153970E944F3AF701608B718BED
:1014C000828B938BFFEF6F1A7F0A24E0E20EF11CF0
:1014D00033E063167104D9F65ACF20E030E040E0E3
:1014E0005FE3C501B4010E940F3A18160CF45FCEF9
:1014F0002FE632E143E85AE3C701B6010E944F3AB2
:101500009B01AC01C501B4010E940F3A18160CF4FE
:101510004ECE19C06BA160616BA38FA18E58823033
:1015200018F48BA188608BA39B8D992309F4C8CBF9
:101530004CE050E06EEE71E088E991E00E94BA3B29
:10154000892B09F434CE2BA12170ABA1C101A0FFDE
:1015500002C08E7D02C08E7D9C7FBF8DB111937EB7
:10156000892B09F09FC58E01035F1F4F89E0F801A9
:1015700011928A95E9F7222309F44BC08FA598A907
:10158000867B892B09F090C58091C001853311F0CD
:1015900081118AC580918B0190918C01A0918D0160
:1015A000B0918E01898B9A8BAB8BBC8B909189010A
:1015B00080918801892B4091CC015091CD0160919F
:1015C000CE017091CF014D875E876F87788B8460E5
:1015D0008D8B8091700185FF06C08EEE91E00E9498
:1015E0004E32811163C5B8018EEE91E00E946136E2
:1015F00080911A0181115EC50E94BE24892B09F4D5
:1016000059C580E280931A010E944E120E943D1D2E
:1016100051C580917001F090890181FF26C09FA182
:101620009150933018F0FBA1F064FBA32B8D222383
:1016300039F03F8D323021F46BA160686BA315C087
:1016400080E1F81212C09091800191508BA18074BA
:10165000933030F4882349F09BA190629BA305C08E
:10166000811103C0ABA1A062ABA38091DD01909179
:10167000DE01A091DF01B091E0018093940190938D
:101680009501A0939601B09397018091C201809338
:101690008101882311F088E08D8B8091CC0190919D
:1016A000CD01A091CE01B091CF0180938F01909395
:1016B0009001A0939101B09392018D879E87AF878F
:1016C000B88B8090E9019090EA01A090EB01B09076
:1016D000EC01A501940160918B0170918C018091C6
:1016E0008D0190918E010E94ED37BBA1B074EB2E5D
:1016F000811103C0EBA1E5FF20C0FF2071F0FBA129
:10170000F7FD0BC0EE2021F040E050E0BA0102C02E
:10171000B501A4018F2D0E948E328091E901909134
:10172000EA01A091EB01B091EC0180938B019093C1
:101730008C01A0938D01B0938E01E1100CC08091BB
:101740008B0190918C01A0918D01B0918E01898BBC
:101750009A8BAB8BBC8B8091ED0180939301809130
:10176000CA0190918901981751F049895A896B896A
:101770007C890E948E328091CA01809389019D8963
:1017800080918901892B8D8B8091C901909188016D
:101790009817D1F090911A01923051F02B968FAF9B
:1017A0002B970E9436232B968FAD2B970E94C00259
:1017B0008091C901811103C01092880105C09091E8
:1017C0008801892B809388019D8980918801892BCC
:1017D0008D8B8091C001843049F56091E101709159
:1017E000E2018091E3019091E40120911A012230FD
:1017F000E9F028966FAF289729967FAF29972B9607
:101800008FAF2B972A969FAF2A970E94362340E0EE
:1018100028966FAD289729967FAD29972B968FAD87
:101820002B972A969FAD2A970E942A268091C50160
:10183000809384018091C301809382012F8D233096
:1018400071F58091C60180938501811108C01092C5
:10185000F6011092F7011092F8011092F901C09070
:10186000F601D090F701E090F801F090F901A7019E
:1018700096016091BC017091BD018091BE01909173
:10188000BF010E94ED37882351F0C092BC01D09275
:10189000BD01E092BE01F092BF010E9489328091A9
:1018A000C70190918601981769F0809386018CE0BA
:1018B000FE013196A4EAB1E001900D928A95E1F71C
:1018C0000E9489328091C401809383018091C0017C
:1018D0008632F1F138F48C3109F18E31F9F08A3029
:1018E00069F04FC08C35D1F1863609F441C0883299
:1018F00009F047C068E971E087E02DC060ED71E054
:101900008DA50E948C26809186013DA5831339C048
:101910008CE0E0EDF1E0A4EAB1E025C08D898160C2
:101920008D8B6F8D662329F0B8018EEE91E00E94B9
:101930006136B80180ED91E00E9461368CE0E0ED07
:10194000F1E0A8E9B1E001900D928A95E1F719C0A4
:1019500068E971E086E00E948C2613C08CE0EEEE10
:10196000F1E0A0EBB1E001900D928A95E1F707C09C
:101970008CE0E0EBF1E0DF011D928A95E9F70E942F
:1019800089328091C10180938001803509F41EC3A2
:10199000BF8DB23009F01AC3813021F4BE01635FFC
:1019A0007F4F06C0811109C08D8981608D8BB80180
:1019B0008EEE91E00E94613600C38250823008F0C2
:1019C00095C28091E5019091E601A091E701B09167
:1019D000E8018F8F98A3A9A3BAA3ABA994E0A99F0C
:1019E00070011124F701E856FE4FF8A7EFA3970105
:1019F00020533E4F3EA72DA7D9014D905D906D908D
:101A00007C902081318142815381C301B2010E94C7
:101A1000F8366FA778AB89AB9AABEDA9B4E0EB9F32
:101A200080011124980128563E4F3CAB2BABC801D6
:101A300080539E4F9EAB8DABDC018D909D90AD9001
:101A4000BC90F9012081318142815381C501B401EB
:101A50000E94F8366FAB78AF89AF9AAF77FA70947F
:101A600077F87094D501C401B0588B8F9C8FAD8FDF
:101A7000BE8FF701E251FE4F2FA538A949A95AA9F7
:101A800060817181828193810E94F7366B017C01B4
:101A9000F801E251FE4F2FA938AD49AD5AAD608132
:101AA0007181828193810E94F7364B015C01A7010D
:101AB0009601C301B2010E944F3A69A77AA78BA78A
:101AC0009CA7A50194016B8D7C8D8D8D9E8D0E94B0
:101AD0004F3A9B01AC0169A57AA58BA59CA50E94F4
:101AE000F83669A77AA78BA79CA7A5019401C30123
:101AF000B2010E944F3A4B015C01A70196016B8D28
:101B00007C8D8D8D9E8D0E944F3A9B01AC01C5014D
:101B1000B4010E94F73629A53AA54BA55CA50E9401
:101B200077376B017C019BA192FF13C02DEB37E34C
:101B300046E055EBC701B6010E940F3A87FD1DC074
:101B40002BED3FE049EC50E4C701B6010E94F736A7
:101B500012C02DEB37E346E055E3C701B6010E9402
:101B6000ED37181654F02BED3FE049EC50E4C70177
:101B7000B6010E94F8366B017C0180906401909060
:101B80006501A0906601B09067012F8D38A149A131
:101B90005AA1CA01B9010E94F836A50194010E9418
:101BA000F7369B01AC01C501B4010E944F3A0E9477
:101BB000EE3A4B015C0120E030E040E05FE3C7011A
:101BC000B6010E944F3A2F8D38A149A15AA10E9417
:101BD0004F3A9F77A50194010E94F7370E94DC38A5
:101BE0000E9470387AA769A7DB01AB2B09F4D6CE27
:101BF0001D894B01A12CB12C13FF12C0C501B401EA
:101C00000E949F389B01AC016D857E858F859889E8
:101C10000E944F3A6D877E878F87988B177F1D8B29
:101C2000C501B4010E949F384B015C019B01AC01CE
:101C3000C701B6010E94F7376BA37CA38DA39EA3B7
:101C4000EBADB4E0EB9FC00111248C0108561E4F90
:101C5000FC01E251FE4FD8012D913D914D915C91D7
:101C600060817181828193810E94F736A501940180
:101C70000E94F73727966CAF7DAF8EAF9FAF279747
:101C80002BA13CA14DA15EA1CA01B9010E944F3A0E
:101C90009B01AC0160E070E080E090E40E94F736C8
:101CA0006B017C012BEA3AEA4AE25EE36BA17CA17C
:101CB0008DA19EA10E944F3A4B015C0120E030E0D3
:101CC00040E850E4C701B6010E94F8369B01AC0120
:101CD000C501B4010E944F3A6BAF7CAF8DAF9EAF90
:101CE00020E030E040E05FE3C701B6010E944F3AD8
:101CF00023966CAF7DAF8EAF9FAF23971F8E2224AC
:101D00002394312CE9A5FAA52E163F0609F446CEF8
:101D1000BF8DBC3008F044C023962CAD3DAD4EAD18
:101D20005FAD23976B8D7C8D8D8D9E8D0E944F3A7C
:101D30006B017C012BAD3CAD4DAD5EADC301B2017D
:101D40000E944F3AA70196010E94F8367B016C0170
:101D500023962CAD3DAD4EAD5FAD2397C301B201CF
:101D60000E944F3A4B015C012BAD3CAD4DAD5EADD9
:101D70006B8D7C8D8D8D9E8D0E944F3A9B01AC01A9
:101D8000C501B4010E94F7362B013C01EF8DEF5FD6
:101D9000EF8F470156018B8E9C8EAD8EBE8E65C037
:101DA000B10180E090E00E949F382BA13CA14DA1A1
:101DB0005EA10E944F3A6B017C010E94F2376B8F4B
:101DC0007C8F8D8F9E8FC701B6010E94E03A4B0138
:101DD0005C01ADA5BEA5CD90DD90ED90FC90F7FA2D
:101DE000F094F7F8F094ADA9BEA98D919D910D9056
:101DF000BC91A02D8F8F98A3A9A3BAA32B8D3C8D46
:101E00004D8D5E8DC701B6010E944F3A2B013C01FA
:101E1000A50194016F8D78A189A19AA10E944F3AE2
:101E20009B01AC01C301B2010E94F8362B013C01B9
:101E3000A5019401C701B6010E944F3A6B017C01D4
:101E40002B8D3C8D4D8D5E8D6F8D78A189A19AA1D2
:101E50000E944F3A9B01AC01C701B6010E94F736C0
:101E60006B8F7C8F8D8F9E8F1F8EA30192016FA52C
:101E700078A989A99AA90E94F836EFA1F8A56083EC
:101E80007183828393832B8D3C8D4D8D5E8D6FA9E5
:101E900078AD89AD9AAD0E94F836ABA9BCA96D9317
:101EA0007D938D939C93139727962CAD3DAD4EADAE
:101EB0005FAD2797F80160817181828193810E94D3
:101EC000F836D8016D937D938D939C931397BE0143
:101ED000635F7F4F88E991E00E94613680911B012A
:101EE00081116BC0BFEF2B1A3B0A0CCF8D89846028
:101EF0008D8B80911A01823009F45FC00E943623D5
:101F000080911B01811162C0FBA1F071FF2E109224
:101F10001F012BA123FB882780F90E94DC1D86B1BD
:101F2000807290910001891749F084E00E94A61107
:101F30000E942A2280E00E94DC1D48C0B8018EEE7B
:101F400091E00E94613681E08093190182E00E9455
:101F5000B6110E942A2280911B01811137C0809105
:101F60001A018111F6CF80911901813081F4FF208F
:101F700051F08CE0E1E0F1E0ADE0B1E001900D92D4
:101F80008A95E1F707C085E00E94A61103C081E0B1
:101F900080931F011092190180E00E94DC1D0E94B5
:101FA0002A220E94C21A0E94CE240E9429240E9442
:101FB000CD3680911F01811188C08CE0EEEEF1E0FA
:101FC000A8E9B1E001900D928A95E1F78091C801EE
:101FD00080938701882309F47FC00E943623809173
:101FE000870190911A01833041F49230D1F188E059
:101FF0000E94B6110E942A2234C081E080938001A1
:102000001092840110928301109281011092860136
:10201000109289011092880184E6809321018093B7
:10202000220180932301923091F064EA71E080E014
:102030000E94B31D8823E1F10E94893240E050E004
:10204000BA0180E00E94551D80E00E94C00283EA30
:1020500092E00E941A248AE392E00E941A240E94CD
:10206000382A109287012FC081E036C082E034C048
:1020700088E132C086E230C089E12EC084E02CC005
:102080008BE12AC085E228C084E126C08EE124C00D
:102090008FE122C086E120C080E21EC082E21CC027
:1020A00083E21AC084E218C080E116C08FE014C039
:1020B00087E012C08CE0EEEEF1E0A8E9B1E001901B
:1020C0000D928A95E1F780E007C00E9413027ECF4F
:1020D0001A8E1BA20C940703C65BDF4F0FB6F89451
:1020E000DEBF0FBECDBFDF91CF911F910F91FF904B
:1020F000EF90DF90CF90BF90AF909F908F907F90A8
:102100006F905F904F903F902F9008958093B30011
:10211000811104C08091B0008F7703C08091B0001E
:1021200080688093B00008954F925F926F927F9283
:102130008F929F92AF92BF92CF92DF92EF92FF92D7
:10214000CF936B017C01C091230180906C01909032
:102150006D01A0906E01B0906F01409068015090A9
:10216000690160906A0170906B01A3019201C50141
:10217000B4010E940F3A87FF1AC06C2F70E080E014
:1021800090E00E94A1382AE037ED43E25CE30E9430
:102190004F3A9B01AC01C701B6010E944F3A6B0157
:1021A0007C01A30192010E940F3A87FD0AC0409270
:1021B0002701509228016092290170922A018FEF25
:1021C00047C0A5019401C701B6010E94ED3718165A
:1021D000E4F020E030E0A901C701B6010E94ED372C
:1021E000811109C010922701109228011092290133
:1021F00010922A012DC08092270190922801A0926E
:102200002901B0922A0181E023C0C0922701D09217
:102210002801E0922901F0922A01A5019401C70149
:10222000B6010E94F7362091510530915205409138
:102230005305509154050E944F3A0E94DC3820E02B
:1022400030E040E85FE30E94F8360E947038862F45
:10225000CF91FF90EF90DF90CF90BF90AF909F9085
:102260008F907F906F905F904F900895CF93DF9302
:10227000C1E1D7E08991882319F00E949328FACF11
:10228000DF91CF910895CF93DF9321E5829FC00125
:102290001124EC01DD5F40E550E0BE0181E197E0F3
:1022A0000E941902892B69F4109211070E943623AB
:1022B00040E550E061E177E0CE010E94810280E0DC
:1022C00001C081E0DF91CF910895CF93DF93C0E00B
:1022D0008C2F0E94431181110EC0109211078EE3C2
:1022E0000E9493280E9436118AE30E94932887E077
:1022F0000E94D02812C080911107882371F00E949B
:10230000CD02D82F8EE30E9493280E9436118AE3D3
:102310000E9493288D2F0E94DC28C13011F0C1E06B
:10232000D7CFDF91CF9108952FB7F89490915005B2
:10233000892B809350052FBF08952FB7F894909163
:102340004F05892B80934F052FBF08959FB7F894B1
:1023500080934E059FBF08952FB7F89490914D0537
:102360008095892380934D052FBF08952FB7F8944A
:1023700090914D05892B80934D052FBF0895AF9205
:10238000BF92CF92DF92EF92FF920F931F93CF9362
:10239000DF9300D000D0CDB7DEB75B012BE2E22E99
:1023A00021E0F22E8C016B018CE0C80ED11CF501EE
:1023B00061917191819191915F01F7012191319129
:1023C000419151917F0129833A834B835C830E9421
:1023D000A13829813A814B815C810E94F737F8014D
:1023E00061937193819391938F01AC14BD04F9F6BD
:1023F0000F900F900F900F90DF91CF911F910F9141
:10240000FF90EF90DF90CF90BF90AF90089596B17E
:10241000892F877049F0892F8095817091FF8260A4
:1024200092FD03C08460089580E008951F920F928A
:102430000FB60F9211242F933F934F935F936F9397
:102440007F938F939F93AF93BF93EF93FF930E94DC
:102450000712882391F080FF03C00E945B260DC005
:1024600082FF04C080914D05826005C081FF05C0D8
:1024700080914D05886080934D05FF91EF91BF914C
:10248000AF919F918F917F916F915F914F913F910C
:102490002F910F900FBE0F901F9018952F923F9283
:1024A0004F925F926F927F928F929F92AF92BF9264
:1024B000CF92DF92EF92FF920F931F93CF93DF9310
:1024C000CDB7DEB7EC970FB6F894DEBF0FBECDBF29
:1024D00080911E0180FDB3C790917B0580917C05A2
:1024E000981709F4ACC78091040690910506892BD2
:1024F00009F03BC310911E0112FF09C080911C0519
:1025000022E3289FC001112484509E4F02C00E94E4
:10251000BE24909305068093040620900406309014
:1025200005062114310409F48AC700911E05902F75
:10253000917000FF03C010921E05FEC080911D0522
:102540008F5F853009F0982F90931D05E92EF12CAF
:1025500032E13E9DF0013F9DF00D1124E655FA4F0A
:10256000F093A905E093A805D10150968C9150975E
:10257000808B4D915D916D917C91DB01CA0123E0CF
:10258000880F991FAA1FBB1F2A95D1F780839183BB
:10259000A283B383D10114964D915D916D917C918D
:1025A0001797DB01CA0133E0880F991FAA1FBB1FD1
:1025B0003A95D1F784839583A683B783D101189682
:1025C0004D915D916D917C911B97DB01CA0143E0B8
:1025D000880F991FAA1FBB1F4A95D1F78087918743
:1025E000A287B387D1011C964D915D916D917C912D
:1025F0001F97DB01CA0153E0880F991FAA1FBB1F59
:102600005A95D1F784879587A687B787F1016485A6
:102610007585868597850E949F3860932305709302
:1026200024058093250590932605D1015E962D9172
:102630003D914D915C9191970E94F7379B01AC01C0
:1026400060932705709328058093290590932A05A8
:1026500060E070E080EA9FE30E94F73760932B050B
:1026600070932C0580932D0590932E0510921F05D5
:1026700010922005109221051092220511FD02C032
:1026800003FF1DC060913C0570913D0580913E05A2
:1026900090913F056093340570933505809336051E
:1026A000909337059B01AC010E944F3AF101628B78
:1026B000738B848B958B077F00931E0511C0D1010E
:1026C00052966D917D918D919C9155970E94EE3A15
:1026D00060933405709335058093360590933705E4
:1026E000B2E1BE9DC001BF9D900D1124FC01E655D5
:1026F000FA4F7F01118A8091700181FF1DC0D101C5
:1027000051968C91519785FF17C09A962D913D91C6
:102710004D915C919D9760E070E080E89FE30E949E
:10272000F737609348057093490580934A05909365
:102730004B0521E0F701218B1092300510923105F5
:102740001092320510923305D1015A968D919D91C8
:102750000D90BC91A02D89839A83AB83BC839C018F
:10276000AD0160E070E080E09FE30E94F7374B012D
:102770005C01F101468C578C60A071A011FF4BC029
:10278000F2E0F0932F05D1015296CD90DD90ED90BF
:10279000FC905597A70196010E944F3A9B01AC010E
:1027A000C301B2010E94F7364B015C0120E030E02A
:1027B000A9010E94ED3787FF1DC029813A814B8115
:1027C0005C81CA01B9010E94F836A30192010E94FE
:1027D0004F3A9B01AC01C701B6010E94F7360E9437
:1027E000EE3A60933C0570933D0580933E059093CF
:1027F0003F05B8C18092300590923105A092320514
:10280000B092330510923C0510923D0510923E05A2
:1028100010923F05A7C110922F054092400550929B
:102820004105609242057092430512FF0CC0109260
:102830003C0510923D0510923E0510923F05C12CBB
:10284000D12C760124C0E091FB01EF5FE03109F467
:10285000E0E080911C05E81759F0B2E3BE9FF0015B
:102860001124E450FE4FC288D388E488F58803C061
:10287000C12CD12C7601C701B6010E94EE3A6093BB
:102880003C0570933D0580933E0590933F05C10143
:102890000E944B24698B7A8B8B8B9C8B9B01AC01A8
:1028A0000E944F3A69877A878B879C87D10152961D
:1028B0002D913D914D915C9155972D833E834F8392
:1028C00058879B01AC016D817E818F8198850E9424
:1028D0000F3A18160CF070C029853A854B855C8537
:1028E0006D817E818F8198850E94F7369B01AC01B6
:1028F000C501B4010E944F3A9B01AC01C301B20172
:102900000E94F7366093400570934105809342051D
:102910009093430520E030E0A9010E94ED3718169E
:102920003CF1B2E0B0932F0529813A814B815C8163
:10293000CA01B9010E94F836A30192010E944F3AE0
:102940009B01AC016D817E818F8198850E94F73655
:102950000E94EE3A60933C0570933D0580933E05DE
:1029600090933F0580911E05886080931E05FAC0F4
:10297000A701960169857A858B859C850E94F7362B
:102980009B01AC01C501B4010E944F3A609344051C
:1029900070934505809346059093470529893A89A8
:1029A0004B895C89209338053093390540933A056B
:1029B00050933B0533E0BBC0A70196016D817E813A
:1029C0008F8198850E94F7369B01AC01C501B40147
:1029D0000E944F3A9B01AC01C301B2010E94F8363C
:1029E00020E030E040E05FE30E944F3A6D877E8751
:1029F0008F87988B20E030E0A9010E940F3A1816CB
:102A00000CF098C0A30192016D857E858F85988911
:102A10000E94ED3787FF8AC0A701960169857A85F4
:102A20008B859C850E94F7369B01AC01C501B401E2
:102A30000E944F3A60934405709345058093460584
:102A4000909347052D853E854F8558890E94ED3727
:102A500087FF3BC089899A89AB89BC8980933805F7
:102A600090933905A0933A05B0933B0529853A85A3
:102A70004B855C856D817E818F8198850E94ED37C5
:102A8000811104C091E090932F056CC02D813E818F
:102A90004F81588569857A858B859C850E94F7369C
:102AA0009B01AC01C501B4010E944F3A9B01AC01EE
:102AB000C301B2010E94F73660934005709341054F
:102AC00080934205909343054DC02D853E854F85EB
:102AD0005889209340053093410540934205509317
:102AE0004305209344053093450540934605509394
:102AF000470529813A814B815C81CA01B9010E9455
:102B0000F8362D853E854F8558890E944F3AA7019A
:102B100096010E94F8360E94EE3A60933805709351
:102B2000390580933A0590933B051CC032E0309301
:102B30002F0518C0109240051092410510924205D1
:102B40001092430580913C0590913D05A0913E0572
:102B5000B0913F058093380590933905A0933A05CD
:102B6000B0933B05186010931E018091A705482F74
:102B700050E05E8B4D8B87E0849FF001859FF00DC8
:102B80001124E358FA4F80911D058483A091040617
:102B9000B0910506BCAFABAF5E96BC91BBA3EBADED
:102BA000FCADF78DFCA3ABADBCAD9096BC91BDA3C5
:102BB000EBADFCADF1A1FEA320912B0530912C05CE
:102BC00040912D0550912E056BA17CA18B2F9F2F3D
:102BD0000E94F7366FA778AB89AB9AAB20E030E064
:102BE000A9010E94ED3787FF04C01FA618AA19AAE1
:102BF0001AAA209138052F8B30913905388F4091D2
:102C00003A05498F50913B055A8F809140058B8F33
:102C1000909141059C8FA0914205AD8FB0914305E5
:102C2000BE8FE0913405E983F0913505FD83209155
:102C300036052987309137053D87409144054FA3DC
:102C40005091450558A78091460589A79091470561
:102C50009AA7A0912F05A98BB0913005BBA7E09151
:102C60003105ECA7F0913205FDA7209133052EA781
:102C700030913C053BAB40913D054CAB50913E053E
:102C80005DAB80913F058EAB3BA02CA01DA10EA19A
:102C90008EE3C82E83ECD82E8EE2E82E89E3F82E40
:102CA000412C512C3201CF8ED8A2E9A2FAA2398947
:102CB000313009F401C1ABADBCAD313008F47BC09B
:102CC000333009F02CC15A962D913D914D915C9174
:102CD0005D97C701B6010E944F3A4B015C012F89F5
:102CE000388D498D5A8D69817D8189859D850E94A8
:102CF000F736A50194010E94ED3718168CF12B8D43
:102D00003C8D4D8D5E8D6BA17CA18DA19EA10E94FD
:102D1000F7369B01AC010E94F8366B017C012F89CC
:102D2000388D498D5A8D69817D8189859D850E9467
:102D3000F8369B01AC01C701B6010E94F7376B0161
:102D40007C01BF89B983E88DED83F98DF9872A8DE0
:102D50002D873B8C2C8C1D8D0E8D31E0398B63C102
:102D600020E030E040E05FE3C501B4010E944F3A4B
:102D70009B01AC0169817D8189859D850E94F73623
:102D80009B01AC01C701B6010E944F3A9B01AC0107
:102D9000632D722D812F902F0E94F736362E272E0D
:102DA000182F092FA501940169817D8189859D8551
:102DB0000E94F7367CC05A962D913D914D915C91C1
:102DC0005D97C701B6010E944F3A4B015C0120E0BC
:102DD00030E040E05FE30E944F3A9B01AC01698123
:102DE0007D8189859D850E94F8369B01AC01C701D4
:102DF000B6010E944F3A9B01AC01632D722D812FC9
:102E0000902F0E94F736362E272E182F092F2B8D44
:102E10003C8D4D8D5E8D0E94ED3787FF40C02B8D20
:102E20003C8D4D8D5E8D6BA17CA18DA19EA10E94DC
:102E3000F7369B01AC010E94F8366B017C012F89AB
:102E4000388D498D5A8D69817D8189859D850E9446
:102E5000F8369B01AC01C701B6010E94F7376B0140
:102E60007C012FA138A549A55AA56B8D7C8D8D8D30
:102E70009E8D0E94ED37811103C0B2E0B98B02C074
:102E8000E1E0E98BFF89F983288D2D83398D39871E
:102E90004A8D4D873B8C2C8C1D8D0E8DC4C0A50199
:102EA000940169817D8189859D850E94F8366983B9
:102EB0007D8389879D87B7C0A70196016F89788D2B
:102EC000898D9A8D0E944F3A9B01AC01632D722D22
:102ED000812F902F0E94F7365B014C012FA138A55E
:102EE00049A55AA50E94ED3787FF99C02FA138A5A3
:102EF00049A55AA5632D722D812F902F0E94F73678
:102F00002F89388D498D5A8D0E94F7376B017C01CE
:102F10003FA028A419A50AA552E0598B84C05A964F
:102F20002D913D914D915C915D97C701B6010E9435
:102F30004F3A4B015C019B01AC0169817D81898520
:102F40009D850E940F3A1816DCF520E030E040E045
:102F50005FE3C501B4010E944F3A9B01AC01698156
:102F60007D8189859D850E94F7369B01AC01C70153
:102F7000B6010E944F3A9B01AC01632D722D812F47
:102F8000902F0E94F7366FAB78AF89AF9AAF2BA521
:102F90003CA54DA55EA50E940F3A18168CF4A5011C
:102FA000940169817D8189859D850E94F7366983B9
:102FB0007D8389879D873FA828AC19AD0AAD33C0B2
:102FC0002BA53CA54DA55EA5632D722D812F902FBD
:102FD0000E94F7369B01AC010E94F8366B017C0120
:102FE0002BA93CA94DA95EA969817D8189859D8513
:102FF0000E94F8369B01AC01C701B6010E94F73769
:103000006B017C01BBA9B983ECA9ED83FDA9F9870C
:103010002EA92D873BA42CA41DA50EA504C03A2CD7
:103020002B2C182D092DA7019601C301B2010E9476
:10303000F8362B013C012F8D38A149A15AA10E94DD
:10304000ED3787FF07C0A30192016F8D78A189A199
:103050009AA133C02FA538A949A95AA9632D722D69
:10306000812F902F0E940F3A1816BCF089819D8104
:10307000A985BD858093340590933505A0933605C9
:10308000B0933705398930932F05E091A805F09169
:10309000A9059189911136C031C02EE333EC4EE27F
:1030A00059E36F8D78A189A19AA10E94F8366F8F9C
:1030B00078A389A39AA3A30192010E94F7366B011A
:1030C0007C012BA53CA54DA55EA5632D722D812FFE
:1030D000902F0E940F3A18160CF4E9CD89819D813A
:1030E000A985BD858093340590933505A093360559
:1030F000B0933705498940932F05C7CF80911E01B2
:1031000083FF3FC0ABADBCAD51968C91519780739E
:1031100049F19E96CD90DD90ED90FC90D19799234A
:10312000D1F0209148053091490540914A055091D0
:103130004B0560913405709135058091360590916D
:1031400037050E944F3A9B01AC01C701B6010E94AE
:103150004F3A6B017C01C701B6010E949410809325
:103160004C050AC0109227011092280110922901E3
:1031700010922A0110924C0580911E01877F809346
:103180001E0127E0ED89FE892E9FA0012F9F500D83
:103190001124CA0183589A4F9A87898780914C05D8
:1031A000A985BA8516968C9320912705309128051C
:1031B0004091290550912A05632D722D812F902F62
:1031C0000E944F3A69837A838B839C830E94D6370F
:1031D0006B017C0160912305709124058091250588
:1031E000909126050E94D6374B015C01A7019601FC
:1031F0000E94F7360E9470386D837E838F83988794
:103200002D813E81E985FA8531832083232B41F48A
:1032100080911E0181FF04C0816080931E010FC157
:1032200020911F05309120054091210550912205E4
:10323000C301B2010E94F8362B013C0129813A8179
:103240004B815C81C501B4010E94F7369B01AC0142
:10325000C301B2010E94F7374B015C0120EC31EE53
:1032600044E65EE40E944F3A0E94D6370E947038CE
:10327000603D57E075078105910560F427E0AD8951
:10328000BE892A9FF0012B9FF00D1124E358FA4FBD
:10329000158254C0603A3FE073078105910568F4D8
:1032A000A7E04D895E89A49FF001A59FF00D112430
:1032B000E358FA4FB1E0B5831FC06034EFE17E07F9
:1032C0008105910568F447E02D893E89429FF00110
:1032D000439FF00D1124E358FA4F52E055830CC080
:1032E00027E0AD89BE892A9FF0012B9FF00D1124A4
:1032F000E358FA4F33E03583A7E04D895E89A49FF8
:10330000F001A59FF00D1124E358FA4F2581022EFC
:1033100004C096958795779567950A94D2F74D8165
:103320005E8102C0440F551F2A95E2F75183408306
:103330006115710551E08507910568F427E0AD89B5
:10334000BE892A9FF0012B9FF00D1124E358FA4FFC
:103350007383628304C04FEF5FEF53834283809196
:103360007C058093A7058F5F863019F080937C05DC
:1033700002C010927C05E0910406F0910506832DB1
:10338000922DA12FB02F868F978FA0A3B1A3C092AB
:103390002305D0922405E0922505F0922605298187
:1033A0003A814B815C81C701B6010E94F736A501C5
:1033B00094010E944F3A60931F05709320058093FB
:1033C00021059093220520913005309131054091DF
:1033D000320550913305632D722D812F902F0E945D
:1033E000ED37811179C820E030E0A901632D722DFD
:1033F000812F902F0E940F3A90911E01181614F001
:1034000092FF04C0916090931E0119C010920506AE
:10341000109204069091FB0180911C05891709F414
:103420005BC881E0890F803109F480E02091FA01C6
:10343000921302C08093FA018093FB014DC8EC9671
:103440000FB6F894DEBF0FBECDBFDF91CF911F91B5
:103450000F91FF90EF90DF90CF90BF90AF909F9033
:103460008F907F906F905F904F903F902F90089536
:10347000CF93DF93C0910406D09105062097C9F041
:1034800080911E05816080931E05609134057091C6
:10349000350580913605909137059B01AC010E945E
:1034A0004F3A6A8B7B8B8C8B9D8B1092050610920A
:1034B0000406DF91CF91089580915C01682F90E020
:1034C00020915D01422F80FD94E0822F817020FDCC
:1034D00080E261FD986041FD806462FD906142FD83
:1034E0008068909355058093560508951F920F921A
:1034F0000FB60F9211248F939F938BB19091550526
:103500009C71837E892B8BB915BC9F918F910F90F5
:103510000FBE0F901F90189580916F008D7F809344
:103520006F0080918100887F81608093810010927C
:10353000570580915E0190911A018F3F39F42091D7
:103540004E05211103C0903881F402C0943069F017
:1035500090E0009741F0EFE9FFE03197F1F700C00C
:1035600000000197F6CF81E001C080E090917001EA
:1035700092FF02C091E08927882311F0289A0895CC
:1035800028980895CF93DF930E948C1A80E3EDE191
:10359000F5E0DF011D928A95E9F7C8E5D5E083E201
:1035A000FE0111928A95E9F7109205061092040621
:1035B00010927B051092A70581E080937C05109204
:1035C00057050E945C1A809156058F878BB1837EC8
:1035D00090915505892B8BB98BB18F7190915605C0
:1035E000892B8BB9DF91CF9108951F920F920FB65F
:1035F0000F9211242F933F934F935F936F937F9379
:103600008F939F93AF93BF93EF93FF938091570551
:10361000811122C28BB190916705907E8F71892BA9
:103620008BB98BB1837E90916605892B8BB9809184
:10363000650586BD82E085BD81E08093570578945D
:103640008091790590917A05892B09F0BFC080910E
:103650007B059091A705981709F4A4C0E0917B051C
:103660002E2F30E087E0E89FF0011124E358FA4F55
:10367000F0937A05E0937905828193819093890094
:103680008093880080819181909375058093740563
:10369000E481809176058E1761F1E093760582E1F1
:1036A000E89FF0011124E655FA4FF0937805E09376
:1036B000770584859585A685B785B695A795979551
:1036C00087958093600590936105A0936205B09300
:1036D000630580935C0590935D05A0935E05B093B0
:1036E0005F058093580590935905A0935A05B093B0
:1036F0005B05A0917705B09178059091560550969D
:103700008C91509789278093670587E0829FF0010D
:10371000839FF00D1124E358FA4F25814D915D915F
:103720006D917C911397022E04C0769567955795FD
:1037300047950A94D2F740936805509369056093C2
:103740006A0570936B0514964D915D916D917C9116
:103750001797022E04C076956795579547950A945A
:10376000D2F740936C0550936D0560936E0570938E
:103770006F0518968D919D910D90BC91A02D04C060
:10378000B695A795979587952A95D2F7809370055A
:1037900090937105A0937205B093730586810E9482
:1037A000861014C00E948C1AE0917705F09178057C
:1037B0008189882339F01092B3008091B0008F770F
:1037C0008093B00084E00E94B61146C18091190137
:1037D0008130B1F486B1807290910001891781F037
:1037E000109219018CE0E1E0F1E0ADE0B1E0019070
:1037F0000D928A95E1F780914D05806480934D0587
:1038000010926605409168055091690560916A05BE
:1038100070916B058091580590915905A0915A05BA
:10382000B0915B05840F951FA61FB71F80935805A5
:1038300090935905A0935A05B0935B05E0917705E5
:10384000F091780544855585668577854817590731
:103850006A077B0768F524E0209366054485558553
:1038600066857785841B950BA60BB70B809358054F
:1038700090935905A0935A05B0935B0520898091D8
:10388000010190910201A0910301B091040125FF73
:1038900004C00197A109B10903C00196A11DB11D82
:1038A0008093010190930201A0930301B09304015E
:1038B00040916C0550916D0560916E0570916F059A
:1038C00080915C0590915D05A0915E05B0915F05CA
:1038D000840F951FA61FB71F80935C0590935D050D
:1038E000A0935E05B0935F05448555856685778511
:1038F000481759076A077B0778F520916605286005
:10390000209366054485558566857785841B950BD0
:10391000A60BB70B80935C0590935D05A0935E05A5
:10392000B0935F0520898091050190910601A091D7
:103930000701B091080126FF04C00197A109B10950
:1039400003C00196A11DB11D80930501909306014E
:10395000A0930701B0930801409170055091710543
:103960006091720570917305809160059091610579
:10397000A0916205B0916305840F951FA61FB71F24
:103980008093600590936105A0936205B0936305F1
:103990004485558566857785481759076A077B07EB
:1039A00078F520916605206120936605448555854C
:1039B00066857785841B950BA60BB70B80936005F6
:1039C00090936105A0936205B0936305208980916F
:1039D000090190910A01A0910B01B0910C0127FF00
:1039E00004C00197A109B10903C00196A11DB11D31
:1039F0008093090190930A01A0930B01B0930C01ED
:103A000080911A01843039F49091200180916605EB
:103A100089238093660580917405909175050197BF
:103A20009093750580937405892B69F410927A053B
:103A30001092790580917B058F5F80937B0586309E
:103A400011F410927B0590915505809166058927A8
:103A50008093660510925705FF91EF91BF91AF914A
:103A60009F918F917F916F915F914F913F912F9196
:103A70000F900FBE0F901F9018958091700182FFDC
:103A800002C0289A01C02898809155058093660548
:103A900080915B01880F84508195809365058091AA
:103AA0006F00826080936F00089590911B019111C7
:103AB00026C081110EC01092270110922801109289
:103AC000290110922A018091B0008F778093B00075
:103AD00014C0803111F42D9801C02D9A909170017D
:103AE00091FF05C0803219F440E050E0BA01CB01EB
:103AF000BA010E9494100E94861010922501089528
:103B0000CF93DF93239AC0EBD0E083E0888384E0F7
:103B10008093B100259A20916C0130916D01409104
:103B20006E0150916F0160916801709169018091FF
:103B30006A0190916B010E94F7369B01AC0160E035
:103B400070E08EE793E40E94F7376093510570931D
:103B50005205809353059093540588818F7788830D
:103B6000DF91CF9108951F93CF93DF93182FEB012F
:103B70008DE0189FB00111247E5F4CE050E0CE0133
:103B80000E941902892B59F48CE0FE0111928A954A
:103B9000E9F7BE01812F0E948C2680E001C081E000
:103BA000DF91CF911F9108950E94BE24892B19F0B7
:103BB00082E00C94B611089510920001909170016A
:103BC00097FD03C090E290930001882331F090911B
:103BD000000180E2892780930001089520917001FF
:103BE00020FF08C02BE832E441E25DE30E944F3A37
:103BF00041E001C040E00C9447233F924F925F9216
:103C00006F927F928F929F92AF92BF92CF92DF92EC
:103C1000EF92FF920F931F93CF93DF93CDB7DEB751
:103C2000A4970FB6F894DEBF0FBECDBF10914E051E
:103C3000112391F181E080931A018EEA92E00E94B3
:103C40001A24812F0E94F4230E94CC2885EF91E052
:103C5000019739F0EFE9FFE03197F1F700C000007C
:103C6000F7CF1150123030F08FB7F89410924E0504
:103C70008FBF12C083EA92E00E941A2481E992E089
:103C80000E941A240E94382A80E10E94AC1180917F
:103C90004D0584FFFCCFE8CF10914D05112309F4A9
:103CA000BEC214FF04C081E080931B01BBC310FFA0
:103CB000C0C18CE0E1E0F1E0DE01599601900D9287
:103CC0008A95E1F7BE01675E7F4FCE010D960E9497
:103CD000BF118CE30E94932880911A018830E1F093
:103CE00058F4813099F1A8F0823099F1843009F0CC
:103CF00043C089EF92E03EC0803229F118F4803150
:103D000071F03AC0803441F18038B1F581EE92E033
:103D100031C08CE093E02EC088E093E02BC080910E
:103D20001C0187FD10C082E093E00E941A2480915C
:103D30001C0180FF06C080E31AC082FF17C085FF08
:103D4000FACF81E314C08EEF92E014C083EF92E0CB
:103D500011C08DEE92E00EC087EE92E00E941A2410
:103D600080911C0183FFE9CF83E301C082E30E94BD
:103D7000932802C00E941A2480915F01F82FF170ED
:103D8000BF2E80FD15C04090BC015090BD016090D9
:103D9000BE017090BF0144EA842E41E0942E9E0142
:103DA0002F5F3F4F7901CE010D966C0100E02CC0D2
:103DB00080912601882339F38AED92E03FC0A30168
:103DC00092010E94F836F7016083718382839383A6
:103DD000B110F2CFF7012081318142815381F60188
:103DE00060817181828193810E94F736F601608340
:103DF0007183828393830F5FF4E0EF0EF11C24E064
:103E0000C20ED11C0330B1F0F40161917191819126
:103E100091914F0120853185428553850E94F83666
:103E2000F7016083718382839383023041F2BB2068
:103E300089F2E1CFB110C0CF83ED92E00E941A2445
:103E4000CE010D960E94AF2880915F0181FF1FC0B7
:103E50008EEC92E00E941A2490911C058091FB0147
:103E6000981710F0815F01C08150891B0E94F423D4
:103E70008CE20E9493288091A4069091A506981741
:103E800010F0805801C08150891B0E94F42389ECF6
:103E900092E00E941A2480911A018C7749F0609177
:103EA000340570913505809136059091370503C032
:103EB00060E070E0CB010E94EE1D8CE20E9493282E
:103EC00060912701709128018091290190912A0128
:103ED00040E00E9447230E94FE01F82E0E94071234
:103EE000082F86B1982F907280910001E92EE82664
:103EF0008F2D802B8E2959F184EC92E00E941A2498
:103F0000EE2019F080E50E949328FF2079F0F0FE62
:103F100003C088E50E949328F1FE03C089E50E9452
:103F20009328F2FE03C08AE50E949328002379F0CB
:103F300000FF03C082E50E94932801FF03C088E4CC
:103F40000E94932802FF03C083E50E94932880917A
:103F50002601882321F081508093260118C080918A
:103F60001A018C7711F08DE101C089E08093260160
:103F700080912501811103C081E0809325018EEBA2
:103F800092E00E941A24CE0101960E94AF2800916F
:103F90002501002321F001500093250142C08091AA
:103FA0001A018C7711F083E101C089E0809325012B
:103FB00089EB92E00E941A24809121010E94F4234F
:103FC0008CE20E949328809122010E94F4238CE2CB
:103FD0000E949328809123010E94F4238091B000D5
:103FE00087FF05C02D9902C001E001C002E0439B9C
:103FF00003C0FF24F39403C0002399F0F12C85EB58
:1040000092E00E941A24002339F0013011F483E574
:1040100001C083E40E949328FF2019F086E40E94E7
:1040200093288EE30E9493280E94CC2881E00E946E
:10403000AC11812F887E09F469C080911A01982FF4
:10404000937009F052C08872A1F080911C01807CAD
:1040500081F40E94381A82E080931E0180911A0137
:10406000803239F417FD05C080911C01806880936F
:104070001C0180911A01811103C091E090931C01F1
:1040800016FF07C085FD05C090911C0190649093B8
:104090001C0113FF05C0807E19F480E180931A0192
:1040A00015FF23C083EA92E00E941A248FE492E075
:1040B0000E941A240E94382A80911C0187FD10C09A
:1040C00090911A01903439F483FF07C0837E826097
:1040D00080931C0102C0903819F080E480931A018B
:1040E00080911C01806280931C0117FF0CC080919D
:1040F0001A01813029F480911C01856080931C0194
:1041000080E880931A0188EE0E94AC1111FF44C030
:10411000812F8876F1F580911A01803471F48091B5
:104120001C0185FD0AC084FF03C010921A0105C05E
:1041300082FF03C0886080931C0180911A0188234C
:1041400081F084FF26C090911C0190FF22C0803135
:1041500041F480912401882321F088608093240118
:1041600018C010921E010E94BE24892B71F080910C
:104170001C0186FD0AC010921C0188E080931A0180
:104180000E944E120E943D1D04C010921C0110920C
:104190001A0182E00E94AC1112FF41C080911A0105
:1041A000807D90911C018823D9F080911D0181119F
:1041B00017C097FD15C00E94381A8091FB018093AB
:1041C000FA010E94DF2480911E0181FF05C09091B9
:1041D0001C01916090931C01897F80931E011CC07B
:1041E00097FF0AC010921E010E94CE240E94C21A9C
:1041F0000E9413020E94292480911C0185FF08C09F
:104200008F77816080931C0180E480931A0104C041
:1042100010921C0110921A0184E00E94AC1190913E
:104220004F05992309F4ABC08FB7F89410924F054E
:104230008FBF4091210190FF02C084E601C0842F0E
:1042400091FD865F92FD8A5093FD8F5F94FD8150B2
:10425000893C08F088EC8A3008F48AE03091220129
:1042600095FF02C024E601C0232F96FD22E397FDAF
:1042700029E1841303C0231709F481C0809321012D
:1042800020932201109225011091FB0130901C0512
:1042900089E9D82E96E7E92E26E9F22E0EE732E3D9
:1042A000432E131509F457C0812E912C489CC00150
:1042B000499C900D1124FC01E450FE4F5F01CF0199
:1042C0000E944B24562E672E782EC92E2D2D3E2D62
:1042D0004F2D502F0E940F3A18164CF42D2D3E2DC5
:1042E0004F2D502F6D2D7E2D8F2D902F08C0252DF9
:1042F000362D472D5C2D652D762D872D9C2D0E940A
:104300004F3AF501668B778B808F918F489CC00167
:10431000499C900D11249C0124503E4F7901F901D4
:1043200082A093A0A4A0B5A0A50194016689778975
:10433000808D918D0E940F3A18162CF4F701868A11
:10434000978AA08EB18E1F5F103109F410E0D52C32
:1043500073010C2DA6CF8D2D9E2DAF2DB02F8093E8
:104360001E0690931F06A0932006B09321060E947C
:10437000381A8091FB018093FA010E94DF2490910A
:104380005005992309F448C08FB7F894109250054E
:104390008FBF2091230190FF02C084E601C0822FCD
:1043A00091FD865F92FD8A5093FD8F5F94FD815051
:1043B000893C08F088EC8A3008F48AE0821749F0DA
:1043C00020911E01286020931E01809323011092EA
:1043D000250180911A0195FF0DC0803159F420917B
:1043E0002401211102C022E003C020FF03C0246089
:1043F00020932401907C81F0882311F0887161F072
:104400001091880116FF02C01F7B01C01064812F2C
:104410000E94C0021093880180911A018C7F11F0D4
:104420000E944E12A4960FB6F894DEBF0FBECDBF09
:10443000DF91CF911F910F91FF90EF90DF90CF9080
:10444000BF90AF909F908F907F906F905F904F90B4
:104450003F900895CF92DF92EF92FF921F93CF93F8
:10446000DF930E94FD1D80911C01882309F4F6C092
:104470000E94BE24009771F4C09188018091890147
:10448000C82BC0908B01D0908C01E0908D01F090F2
:104490008E0106C0FC01C189C6A4D7A4E0A8F1A87A
:1044A0008091700181FF03C080E20E949411DC2F93
:1044B000D07311E0C07490911C01992309F4CEC00F
:1044C00080911B018111CAC090FFC5C080911A0163
:1044D000282F207C09F474C092FD12C01092240190
:1044E00040E050E0BA0180E00E94551D80E00E944B
:1044F000C00290911C019D7F946090931C01ABC001
:104500008038E1F483EA92E00E941A248CE092E081
:104510000E941A240E94382A40E050E0BA0180E04C
:104520000E94551D80E00E94C0020E948C1A80915A
:104530001B01811193C00E94FD1DF9CF803419F435
:104540009F7D90931C0180911C0183FF84C09091FA
:1045500089019923C1F081FD16C08091700181FF0E
:1045600006C080911E01886080931E010CC0B701B7
:10457000A6018D2F0E94551D41E060E070E080E8AB
:1045800090E40E942A2680918801882371F080910E
:104590001C0181FD0AC08C2F0E94C00241E060E036
:1045A00070E080E89FE30E942A2690911C0191FD13
:1045B00052C0906190931C0182E00E94B6114BC0E2
:1045C000909124019923C9F191FF0DC08091890137
:1045D0008823B1F040E050E0BA0180E00E94551D10
:1045E0001093240138C09C70B1F180918901811130
:1045F0000AC08091240183FF03C082E00E94B611AB
:104600001092240128C083EA92E00E941A2485E1D6
:1046100092E00E941A240E94382A8091700181FF42
:1046200006C080911E01886080931E01E2CFB70111
:10463000A6018D2F0E94551DDCCF80911E0183FFA6
:104640000AC0B701A6018D2F0E94551D80911E0141
:10465000877F80931E010E94FD1D2DCFDF91CF919A
:104660001F91FF90EF90DF90CF9008950E94D41D8E
:104670000E942A2280911B01811108C00E94BE2441
:10468000892BB1F780911A01883091F308958F92A8
:104690009F92AF92BF92CF92DF92EF92FF920F93D1
:1046A0001F93CF93DF93CDB7DEB72D970FB6F89456
:1046B000DEBF0FBECDBF6B017C01042F20E030E0D8
:1046C000A9010E94ED3787FF07C08DE20E94932861
:1046D000F7FAF094F7F8F094102F123060F020E021
:1046E00030E048EC52E4C701B6010E944F3A6B013A
:1046F0007C011250F2CF00FF0AC020E030E040E21F
:1047000051E4C701B6010E944F3A6B017C0120E0E1
:1047100030E040E05FE3C701B6010E94F8360E9436
:10472000693810E03AE0832E912CA12CB12C611550
:1047300071058105910591F0EE24E394F12CEC0EC6
:10474000FD1EE10EF11CA50194010E94783B605D05
:10475000F7016083B901CA011F5FE9CF80E3101739
:1047600048F4E1E0F0E0EC0FFD1FE10FF11D808364
:104770001F5FF5CF101314C011E0100F80E3FE018E
:10478000E00FF11D81830CC0101303C08EE20E9464
:104790009328FE01E10FF11D80810E9493281150A2
:1047A0001111F2CF2D960FB6F894DEBF0FBECDBF1C
:1047B000DF91CF911F910F91FF90EF90DF90CF90FD
:1047C000BF90AF909F908F9008952091700120FF2F
:1047D00008C02BE832E441E25DE30E944F3A44E036
:1047E00001C043E00C944723CF93DF93843630F02D
:1047F0006AE00E94583BC0E3C90F03C0C0E08A30A2
:1048000030F06AE00E94583BD0E3D90F01C0D0E0FD
:10481000805D0E949328DD2319F08D2F0E9493283C
:10482000CC2329F08C2FDF91CF910C949328DF912A
:10483000CF910895CF93DF93FC018491EF012196EE
:10484000882321F00E949328FE01F7CFDF91CF91BA
:104850000895E6E0F6E0A1E0B1E04D915D916D9143
:104860007C911397408351836283738314964D9197
:104870005D916D917C91179744835583668377830F
:1048800018968D919D910D90BC91A02D8087918758
:10489000A287B3870895BF92CF92DF92EF92FF92E3
:1048A0000F931F93CF93DF937C01FC0102A513A507
:1048B000D4A5C5A5818980FF18C06091220170E050
:1048C00080E090E00E94A1382AE037ED43E25CE30B
:1048D0000E944F3A9B01AC01B8018D2F9C2F0E9482
:1048E0004F3A8B01D82FC92F2DC082FD17C0609180
:1048F000210170E080E090E00E94A1382AE037EDCD
:1049000043E25CE30E944F3A9B01AC01B8018D2F5A
:104910009C2F0E944F3A8B01D82FC92FF701B6A0C8
:10492000C7A0D0A4F1A42B2D3C2D4D2D5F2DB80197
:104930008D2F9C2F0E940F3A181624F40B2D1C2D3E
:10494000DD2DCF2D20E030E040E85FE3B8018D2F72
:104950009C2F0E940F3A181624F000E010E0D0E8D7
:10496000CFE3B8018D2F9C2FDF91CF911F910F9135
:10497000FF90EF90DF90CF90BF9008958091FB0162
:1049800090911C05981739F022E3829FC0011124F1
:1049900084509E4F089580E090E008958CE1E6E019
:1049A000F6E0DF011D928A95E9F71092FB01109263
:1049B0001C0581E0809322061092FA0108952F923F
:1049C0003F924F925F926F927F928F929F92AF929F
:1049D000BF92CF92DF92EF92FF920F931F93CF93EC
:1049E000DF93C0911C05C11101C0C0E1C150D0913D
:1049F000FA01CD1709F41BC1EC2EF12C22E3C29F62
:104A00008001112404501E4FF801A688B788C08C7D
:104A1000D18C628D738D848D958D9B01AC010E942C
:104A2000F836F801268D378D40A151A10E944F3AEA
:104A30004B018C019B01AC01B501C6010E94ED3711
:104A400087FD02C05401680182E38E9DF0018F9DB5
:104A5000F00D1124E450FE4FC501D601828B938BDB
:104A6000A48BB58BC11101C0C0E1C150CD1761F05D
:104A700022E32E9DC0012F9D900D11249C012450F6
:104A80003E4F7901D2E333C08091FB01D8135EC061
:104A90000E94381A5BC0AC2EB12CDA9DC001DB9DA0
:104AA000900D1124FC01E450FE4F6F01C11101C0B3
:104AB000C0E1C1508091FB01C81302C00E94381AA6
:104AC000DA9D8001DB9D100D112404501E4FF8016A
:104AD00086889788A08CB18CA5019401628973891E
:104AE000848995890E94ED37811106C076018091F5
:104AF000FA01C813D0CF2AC0F801628D738D848D5E
:104B0000958D9B01AC010E94F836F801268D378DFA
:104B100040A151A10E944F3AF7012289338944896B
:104B200055890E94F8362B013C01A50194010E9491
:104B3000ED37F80187FF05C0428A538A648A758A77
:104B4000D5CF828A938AA48AB58AD0CFD091FA0130
:104B5000F2E3DF9F8001112404501E4FC1E0CD0F0E
:104B6000C03109F4C0E020901C0582E3382EC21544
:104B700009F45BC0CC2ED12C3C9CC0013D9C900D17
:104B800011249C0124503E4F7901F801428853883A
:104B900064887588F90182889388A488B588A501FE
:104BA0009401C301B2010E94ED3787FF24C0F801D0
:104BB000628D738D848D958D9B01AC010E94F836BA
:104BC000F801268D378D40A151A10E944F3A9B01DB
:104BD000AC01C301B2010E94F8362B013C01A501D2
:104BE00094010E94ED3787FF06C0F701428A538A7D
:104BF000648A758ADC2F3C9CF0013D9CF00D1124E9
:104C0000E450FE4F26893789408D518D6289738922
:104C1000848995890E94ED37811101C0DC2FCF5F17
:104C2000C03109F4C0E08701A2CFD093FA01DF912F
:104C3000CF911F910F91FF90EF90DF90CF90BF9099
:104C4000AF909F908F907F906F905F904F903F902C
:104C50002F9008950F931F93CF93C42F20E030E03F
:104C600040EA51E40E944F3A0E94D6370E947038C1
:104C70008B0101151105D9F080911B01811117C01D
:104C8000C11103C00E942A2206C00E94FD1D80910E
:104C90001C0181FD0CC02FEF80E792E02150804085
:104CA0009040E1F700C0000001501109E2CFCF9120
:104CB0001F910F91089580914D0584FD1FC080E1E3
:104CC0000E94B6118091B0008F778093B000439816
:104CD00090911A01892F8C7221F480911E018670A7
:104CE00069F0943031F480914E05811105C086E061
:104CF00001C083E00E94A6110C948C1A08956AE00A
:104D000080E090E00E945F0245E550E06BE271E0D8
:104D100081E090E00C948102CF93DF9300D01F924A
:104D2000CDB7DEB76A837B8389830E94362389816E
:104D30002DE0829FC00111244CE050E06A817B810C
:104D40009E5F0F900F900F90DF91CF910C94810296
:104D5000EF92FF920F931F93CF93DF93CDB7DEB700
:104D60002C970FB6F894DEBF0FBECDBF182F80FF73
:104D7000EDC088E280935B0189E180935E0110922F
:104D80005C0181E080935D0110925F018AE097ED04
:104D9000A3E2BCE38093600190936101A093620160
:104DA000B09363018FE692E1A3E0BBE380936401DB
:104DB00090936501A0936601B093670180E090E055
:104DC000AAE7B4E48093680190936901A0936A0113
:104DD000B0936B0110926C0110926D0110926E01F4
:104DE00010926F011092710180E090E0A8ECB1E4A4
:104DF0008093720190937301A0937401B093750135
:104E000080E090E0AAEFB3E480937601909377017D
:104E1000A0937801B09379018AEF90E090937B01A1
:104E200080937A0180E090E0A0E8BFE380937C016A
:104E300090937D01A0937E01B0937F011092700149
:104E400080E090E0A0EAB2E480932B0190932C01E3
:104E5000A0932D01B0932E0180932F0190933001E8
:104E6000A0933101B093320180E595E5A5E0B4E46B
:104E70008093330190933401A0933501B0933601B0
:104E800080E090ECAFE0B5E4809337019093380177
:104E9000A0933901B0933A0180933B0190933C0178
:104EA000A0933D01B0933E0180E090E0A1E6B4E420
:104EB00080933F0190934001A0934101B093420140
:104EC00080E096EDA3E8B9E4809343019093440118
:104ED000A0934501B0934601809347019093480108
:104EE000A0934901B0934A0180E098ECAFE2B8E4A6
:104EF00080934B0190934C01A0934D01B0934E01D0
:104F000080E090E0A5E2B4EC80934F0190935001D3
:104F1000A0935101B093520180E090E0A6E9B4EC77
:104F20008093530190935401A0935501B09356017F
:104F300080E090E0A2E8B2EC809357019093580192
:104F4000A0935901B0935A010E947F2611FF10C00F
:104F5000CE0101967C018CE0F70111928A95E9F768
:104F600000E0B701802F0E948C260F5F0830C9F740
:104F700012FF14C060E080E093E00E945F0260E0F6
:104F800081E093E00E945F0260E081E593E00E948F
:104F90005F0260E082E593E00E945F0213FF0AC0B7
:104FA00060E08EEA93E00E945F0260E08FEA93E0A7
:104FB0000E945F022C960FB6F894DEBF0FBECDBFE5
:104FC000DF91CF911F910F91FF90EF9008951F9265
:104FD0000F920FB60F9211242F933F934F935F932D
:104FE0006F937F938F939F93AF93BF93EF93FF93B1
:104FF000E091C600E13271F028F4E83179F40E94C2
:105000005B2656C0EF3321F0EE3741F482E003C057
:1050100081E001C088E00E94B6114AC0E7FF37C0B6
:105020008E2F90E0FC01E458F109ED31F10508F014
:105030003FC0E659FF4F0C949A3B80E2ECCF809141
:105040001A0185FF35C080E4E6CF81E00DC082E023
:105050000BC084E009C088E007C080E105C080E2A1
:1050600003C080E401C080E80E949D1121C081E05E
:105070000BC082E009C084E007C088E005C080E181
:1050800003C080E201C080E40E94941111C0A0918D
:10509000A50681E08A0F813809F480E09091A4068A
:1050A000891731F0B0E0AD5DB94FEC938093A50660
:1050B000FF91EF91BF91AF919F918F917F916F91F0
:1050C0005F914F913F912F910F900FBE0F901F90C6
:1050D00018951F920F920FB60F9211248F939F93E2
:1050E000EF93FF9380911007E82FF0E0E955F94F17
:1050F00090819093C6008F5F893609F480E0809399
:1051000010079091A606891305C08091C1008F7D7C
:105110008093C100FF91EF919F918F910F900FBEEF
:105120000F901F901895E091A60691E09E0F99367A
:1051300031F490E004C020914D0524FD0FC0209172
:1051400010079217C1F3F0E0E955F94F808390936F
:10515000A6068091C10080628093C1000895CF931C
:10516000DF93EC01688179818A819B810E94E5232C
:105170008CE20E9493286C817D818E819F810E94A8
:10518000E5238CE20E949328688579858A859B8532
:10519000DF91CF910C94E52381E193E00C941A24E4
:1051A000CF93C82F8AE193E00E941A248C2F0E948B
:1051B000F423CF910C94CC28811104C089EA92E0A9
:1051C0000C941A240C94D028CF92DF92EF92FF9285
:1051D0001F93CF93DF931F92CDB7DEB7182F6A01CD
:1051E0007B0184E229830E949328812F0E94F4236B
:1051F0008DE30E9493282981422FC701B6010E94A6
:1052000047230F90DF91CF911F91FF90EF90DF9098
:10521000CF900C94CC281F93CF93DF931F92CDB7E0
:10522000DEB7182F84E269830E949328812F0E94A1
:10523000F4238DE30E9493286981862F0E94F42332
:105240000F90DF91CF911F910C94CC28EF92FF9299
:105250000F931F93CF93DF9360915B0170E080E029
:105260000E940B2960915E0170E081E00E940B2991
:1052700060915C0170E082E00E940B2960915D0109
:1052800070E083E00E940B296091700162FB662749
:1052900060F970E084E00E940B296091700166FB68
:1052A000662760F970E085E00E940B29809170010B
:1052B000082E000C990B692F661F6627661F70E089
:1052C00086E00E940B2960915F0170E08AE00E94F5
:1052D0000B294091600150916101609162017091D0
:1052E000630123E08BE00E94E42840916401509127
:1052F0006501609166017091670123E08CE00E9476
:10530000E42860917001617070E08DE00E940B29CB
:105310006091700165FB662760F970E084E10E948E
:105320000B296091700163FB662760F970E085E1ED
:105330000E940B29609170016295617070E086E1B6
:105340000E940B296091710170E087E10E940B2996
:1053500040917201509173016091740170917501D7
:1053600023E088E10E94E428409176015091770182
:10537000609178017091790123E089E10E94E4282D
:1053800060917A0170917B018AE10E940B29409122
:105390007C0150917D0160917E0170917F0123E03D
:1053A0008BE10E94E428409168015091690160916D
:1053B0006A0170916B0120E08EE10E94E428409127
:1053C0006C0150916D0160916E0170916F0120E050
:1053D0008FE10E94E428609170016695617070E031
:1053E00080E20E940B29D4E6F12C0BE211E083E06D
:1053F000E82EED0ECD2F82E0F81691F0E3E0FE16D8
:10540000E9F0F1E0FF1631F0F8014081518162814D
:1054100073811AC0F801448555856685778514C067
:1054200020E030E041E655E4F801608D718D828D19
:10543000938D0E94F737AB01BC0106C0F80144A16F
:1054400055A166A177A1705823E08C2F0E94E42813
:105450000C5F1F4FCF5FCE11CECFD65FF394DC38F9
:1054600021F6DF91CF911F910F91FF90EF9008955A
:105470008DE50E9493280C94CC288F929F92AF9236
:10548000BF92CF92DF92EF92FF920F931F93CF9331
:10549000DF937C016B01DC01EC91F0E0EF5EF84FF3
:1054A0009081EF019D3221F42296918101E007C0A5
:1054B0009B3211F0219602C02296918100E0912C3E
:1054C000F0E010E020E030E0A9015E01E0EDE90F3E
:1054D000EA30D0F4FF5FF93098F491101150A5E054
:1054E000B0E00E94A03BDC01CB01880F991FAA1FEE
:1054F000BB1F9C01AD012E0F311D411D511D0AC066
:10550000911008C01F5F06C0EE3F41F4911006C025
:10551000992493942196D5019C91D7CFFF2309F428
:105520004FC0CA01B9010E949F384B015C0120E0C5
:1055300030E0A9010E94ED37882349F11F3F64F450
:105540002AE037ED43E25CE3C501B4010E944F3A23
:105550004B015C011E5FF2CF1F3F59F42DEC3CEC78
:105560004CEC5DE3C501B4010E944F3A4B015C0174
:105570000EC0112361F020E030E040E251E4C501AB
:10558000B4010E944F3A4B015C011150F2CF00234D
:1055900051F0B7FAB094B7F8B094F60180829182D6
:1055A000A282B38206C0D6018D929D92AD92BC922A
:1055B0001397C151D740C150F701C08381E001C0AA
:1055C00080E0DF91CF911F910F91FF90EF90DF90DE
:1055D000CF90BF90AF909F908F9008952F923F9261
:1055E0004F925F926F927F928F929F92AF92BF92F3
:1055F000CF92DF92EF92FF920F931F93CF93DF939F
:10560000CDB7DEB7A1970FB6F894DEBF0FBECDBF02
:1056100090911B019111C3C18D8F3E012DE0620E4F
:10562000711C89E0D3011D928A95E9F786E08D8B84
:105630002FE4A22E21E0B22EFE0176964F0100E06B
:1056400010E0C12CD12C76013D8D232F30E03C8F12
:105650002B8F902F0115110521F0013021F080E1F1
:1056600003C084E001C088E0D4018D934D01EB8D2F
:10567000FC8D02C0F595E7959A95E2F7E0FF17C01B
:1056800020E030E040EC5FEBD5016D917D918D9194
:105690009C910E944F3A1B012C019B01AC01C70158
:1056A000B6010E940F3A181614F0610172010F5FE3
:1056B0001F4FB4E0AB0EB11C0330110551F6209022
:1056C000760130907701409078015090790194E014
:1056D000A92EBB24B39461E071E0CE0101960E9433
:1056E000BF1180917101882E912CFE01319621E02D
:1056F00031E03A8F298F890120E030E060E070E0EE
:10570000D701C601B0588E8F9F8FA8A3B9A34B8D28
:105710005C8D022E02C0559547950A94E2F740FF32
:105720002BC06F5FD8011D921D921D921C92139782
:10573000A401022E02C0559547950A94E2F740FF56
:1057400003C0BB2019F007C0BB2029F0C082D18262
:10575000E282F38208C08E8D9F8DA8A1B9A18083BB
:105760009183A283B38346E150E04C0F5D1F420F4B
:10577000531FDA014C91742B2F5F3F4F34960C5F0F
:105780001F4F2330310519F6172F70E080E090E0AD
:105790000E949F380E94EE3A9B01AC0110932001B9
:1057A000C201B1010E944F3A6D877E878F87988B27
:1057B000B301CE0101960E948833B4E0B0931E017C
:1057C0000E944E120E943D1DBB20E9F00E94FE0186
:1057D000FE01769620E030E090E06191462F412373
:1057E00059F0AC01022E02C0559547950A94E2F794
:1057F00040FF02C0609516232F5F3F4F23303105D5
:1058000061F7109320010E944E1280914D05847320
:1058100039F110914D0514FF03C086E00E94A611D6
:1058200015FF03C087E00E94A611B11007C00E94B7
:10583000FE01ED8D8E2339F088E003C012FF03C016
:1058400089E00E94A61180914E05882329F00E94CC
:105850005B260E942A22A3C084E00E94AC1104C0EF
:10586000812F8C7109F0B0CF0E94C21A00917A0189
:1058700010917B010115110549F08FE99FE0019717
:10588000F1F700C0000001501109F4CF91E0B926F2
:10589000C9F020E030E040EA50E460917C01709172
:1058A0007D0180917E0190917F010E944F3A6B01B2
:1058B0007C012090720130907301409074015090EF
:1058C000750110C0C0907C01D0907D01E0907E01F8
:1058D000F0907F0120907601309077014090780120
:1058E00050907901AA94A110F6CEC0907101D12CEC
:1058F00080907C0190907D01A0907E01B0907F010E
:105900002401350177FA709477F870948BE2E82ED1
:1059100081E0F82E8B8D9C8D002E02C09595879589
:105920000A94E2F780FF2AC0C601002E02C09595B6
:1059300087950A94E2F7D70180FF10C094962D91C5
:105940003D914D915C919797C501B4010E94F83645
:10595000F701208131814281538106C02D913D9113
:105960004D915C91C301B2010E944F3A0E941C3AD2
:10597000E98DFA8D60837183828393830F5F1F4F5C
:10598000298D3A8D2C5F3F4F3A8F298F34E0E30EFB
:10599000F11C0330110509F0BDCF10921E01A19634
:1059A0000FB6F894DEBF0FBECDBFDF91CF911F9130
:1059B0000F91FF90EF90DF90CF90BF90AF909F90AE
:1059C0008F907F906F905F904F903F902F900895B1
:1059D000CF93DF93CDB7DEB762970FB6F894DEBFF3
:1059E0000FBECDBF8091C00082608093C000109236
:1059F000C50080E18093C4008091C10088698093D4
:105A0000C10080E090E00E94C7018A3009F03DC5E6
:105A100045E550E061E070E08BE291E00E94190200
:105A2000892B09F432C58AB18C618AB9209A8AB16E
:105A3000806E8AB9809181008F7E809381008091F1
:105A40008100886080938100809180008C7F8093AA
:105A50008000809180008F708093800080916E0024
:105A6000887F80936E0014BC15BC80916E008160AD
:105A700080936E0087B1887F87B988B1876088B9C5
:105A800080916C00876080936C00809168008260D8
:105A9000809368008CE0E1E0F1E0DF011D928A95DF
:105AA000E9F7789410921A018091700184FF03C085
:105AB00081E080931A01ADE0CA2EA1E0DA2EB2E0B7
:105AC000EB2E80911A0191E1EAE1F1E011929A95B1
:105AD000E9F780931A0184E68093210180932201E3
